{
  "abi": [
    {
      "inputs": [
        {
          "internalType": "string",
          "name": "_name",
          "type": "string"
        },
        {
          "internalType": "uint256",
          "name": "_favoriteNumber",
          "type": "uint256"
        }
      ],
      "name": "addPerson",
      "outputs": [],
      "stateMutability": "nonpayable",
      "type": "function"
    },
    {
      "inputs": [
        {
          "internalType": "string",
          "name": "",
          "type": "string"
        }
      ],
      "name": "nametoNumber",
      "outputs": [
        {
          "internalType": "uint256",
          "name": "",
          "type": "uint256"
        }
      ],
      "stateMutability": "view",
      "type": "function"
    },
    {
      "inputs": [
        {
          "internalType": "uint256",
          "name": "",
          "type": "uint256"
        }
      ],
      "name": "people",
      "outputs": [
        {
          "internalType": "uint256",
          "name": "favoriteNumber",
          "type": "uint256"
        },
        {
          "internalType": "string",
          "name": "favoriteName",
          "type": "string"
        }
      ],
      "stateMutability": "view",
      "type": "function"
    },
    {
      "inputs": [],
      "name": "retrieve",
      "outputs": [
        {
          "internalType": "uint256",
          "name": "",
          "type": "uint256"
        }
      ],
      "stateMutability": "view",
      "type": "function"
    },
    {
      "inputs": [
        {
          "internalType": "uint256",
          "name": "_favoriteNumber",
          "type": "uint256"
        }
      ],
      "name": "store",
      "outputs": [],
      "stateMutability": "nonpayable",
      "type": "function"
    }
  ],
  "bytecode": "608060405234801561001057600080fd5b5061051d806100206000396000f3fe608060405234801561001057600080fd5b50600436106100575760003560e01c80632e64cec11461005c5780636057361d146100765780636f760f41146100955780639e7a13ad1461013d578063e941975b146101d9575b600080fd5b61006461027f565b60408051918252519081900360200190f35b6100936004803603602081101561008c57600080fd5b5035610286565b005b610093600480360360408110156100ab57600080fd5b8101906020810181356401000000008111156100c657600080fd5b8201836020820111156100d857600080fd5b803590602001918460018302840111640100000000831117156100fa57600080fd5b91908080601f016020809104026020016040519081016040528093929190818152602001838380828437600092019190915250929550509135925061028b915050565b61015a6004803603602081101561015357600080fd5b503561037d565b6040518083815260200180602001828103825283818151815260200191508051906020019080838360005b8381101561019d578181015183820152602001610185565b50505050905090810190601f1680156101ca5780820380516001836020036101000a031916815260200191505b50935050505060405180910390f35b610064600480360360208110156101ef57600080fd5b81019060208101813564010000000081111561020a57600080fd5b82018360208201111561021c57600080fd5b8035906020019184600183028401116401000000008311171561023e57600080fd5b91908080601f016020809104026020016040519081016040528093929190818152602001838380828437600092019190915250929550610432945050505050565b6000545b90565b600055565b60408051808201909152818152602080820184815260048054600181018255600091909152835160029091027f8a35acfbc15ff81a39ae7d344fd709f28e8600b4aa8c65c6b64bfe7fe36bd19b8101918255915180519193610312937f8a35acfbc15ff81a39ae7d344fd709f28e8600b4aa8c65c6b64bfe7fe36bd19c019291019061044f565b505050806003836040518082805190602001908083835b602083106103485780518252601f199092019160209182019101610329565b51815160209384036101000a600019018019909216911617905292019485525060405193849003019092209290925550505050565b6004818154811061038a57fe5b60009182526020918290206002918202018054600180830180546040805193821615610100026000190190911695909504601f81018790048702830187019095528482529195509193919290918301828280156104285780601f106103fd57610100808354040283529160200191610428565b820191906000526020600020905b81548152906001019060200180831161040b57829003601f168201915b5050505050905082565b805160208183018101805160038252928201919093012091525481565b828054600181600116156101000203166002900490600052602060002090601f016020900481019282601f1061049057805160ff19168380011785556104bd565b828001600101855582156104bd579182015b828111156104bd5782518255916020019190600101906104a2565b506104c99291506104cd565b5090565b61028391905b808211156104c957600081556001016104d356fea264697066735822122016cb047a6b49008f85c9997941c581ff23a961669087ad316fcb163b599f4f7c64736f6c63430006000033",
  "bytecodeSha1": "5ca822a171f01ec4d97994c70f9d8db5b1f157fe",
  "compiler": {
    "evm_version": "istanbul",
    "optimizer": {
      "enabled": true,
      "runs": 200
    },
    "version": "0.6.0+commit.26b70077"
  },
  "contractName": "SimpleStorage",
  "language": "Solidity",
  "natspec": {
    "methods": {}
  },
  "opcodes": "PUSH1 0x80 PUSH1 0x40 MSTORE CALLVALUE DUP1 ISZERO PUSH2 0x10 JUMPI PUSH1 0x0 DUP1 REVERT JUMPDEST POP PUSH1 0x4 CALLDATASIZE LT PUSH2 0x57 JUMPI PUSH1 0x0 CALLDATALOAD PUSH1 0xE0 SHR DUP1 PUSH4 0x2E64CEC1 EQ PUSH2 0x5C JUMPI DUP1 PUSH4 0x6057361D EQ PUSH2 0x76 JUMPI DUP1 PUSH4 0x6F760F41 EQ PUSH2 0x95 JUMPI DUP1 PUSH4 0x9E7A13AD EQ PUSH2 0x13D JUMPI DUP1 PUSH4 0xE941975B EQ PUSH2 0x1D9 JUMPI JUMPDEST PUSH1 0x0 DUP1 REVERT JUMPDEST PUSH2 0x64 PUSH2 0x27F JUMP JUMPDEST PUSH1 0x40 DUP1 MLOAD SWAP2 DUP3 MSTORE MLOAD SWAP1 DUP2 SWAP1 SUB PUSH1 0x20 ADD SWAP1 RETURN JUMPDEST PUSH2 0x93 PUSH1 0x4 DUP1 CALLDATASIZE SUB PUSH1 0x20 DUP2 LT ISZERO PUSH2 0x8C JUMPI PUSH1 0x0 DUP1 REVERT JUMPDEST POP CALLDATALOAD PUSH2 0x286 JUMP JUMPDEST STOP JUMPDEST PUSH2 0x93 PUSH1 0x4 DUP1 CALLDATASIZE SUB PUSH1 0x40 DUP2 LT ISZERO PUSH2 0xAB JUMPI PUSH1 0x0 DUP1 REVERT JUMPDEST DUP2 ADD SWAP1 PUSH1 0x20 DUP2 ADD DUP2 CALLDATALOAD PUSH5 0x100000000 DUP2 GT ISZERO PUSH2 0xC6 JUMPI PUSH1 0x0 DUP1 REVERT JUMPDEST DUP3 ADD DUP4 PUSH1 0x20 DUP3 ADD GT ISZERO PUSH2 0xD8 JUMPI PUSH1 0x0 DUP1 REVERT JUMPDEST DUP1 CALLDATALOAD SWAP1 PUSH1 0x20 ADD SWAP2 DUP5 PUSH1 0x1 DUP4 MUL DUP5 ADD GT PUSH5 0x100000000 DUP4 GT OR ISZERO PUSH2 0xFA JUMPI PUSH1 0x0 DUP1 REVERT JUMPDEST SWAP2 SWAP1 DUP1 DUP1 PUSH1 0x1F ADD PUSH1 0x20 DUP1 SWAP2 DIV MUL PUSH1 0x20 ADD PUSH1 0x40 MLOAD SWAP1 DUP2 ADD PUSH1 0x40 MSTORE DUP1 SWAP4 SWAP3 SWAP2 SWAP1 DUP2 DUP2 MSTORE PUSH1 0x20 ADD DUP4 DUP4 DUP1 DUP3 DUP5 CALLDATACOPY PUSH1 0x0 SWAP3 ADD SWAP2 SWAP1 SWAP2 MSTORE POP SWAP3 SWAP6 POP POP SWAP2 CALLDATALOAD SWAP3 POP PUSH2 0x28B SWAP2 POP POP JUMP JUMPDEST PUSH2 0x15A PUSH1 0x4 DUP1 CALLDATASIZE SUB PUSH1 0x20 DUP2 LT ISZERO PUSH2 0x153 JUMPI PUSH1 0x0 DUP1 REVERT JUMPDEST POP CALLDATALOAD PUSH2 0x37D JUMP JUMPDEST PUSH1 0x40 MLOAD DUP1 DUP4 DUP2 MSTORE PUSH1 0x20 ADD DUP1 PUSH1 0x20 ADD DUP3 DUP2 SUB DUP3 MSTORE DUP4 DUP2 DUP2 MLOAD DUP2 MSTORE PUSH1 0x20 ADD SWAP2 POP DUP1 MLOAD SWAP1 PUSH1 0x20 ADD SWAP1 DUP1 DUP4 DUP4 PUSH1 0x0 JUMPDEST DUP4 DUP2 LT ISZERO PUSH2 0x19D JUMPI DUP2 DUP2 ADD MLOAD DUP4 DUP3 ADD MSTORE PUSH1 0x20 ADD PUSH2 0x185 JUMP JUMPDEST POP POP POP POP SWAP1 POP SWAP1 DUP2 ADD SWAP1 PUSH1 0x1F AND DUP1 ISZERO PUSH2 0x1CA JUMPI DUP1 DUP3 SUB DUP1 MLOAD PUSH1 0x1 DUP4 PUSH1 0x20 SUB PUSH2 0x100 EXP SUB NOT AND DUP2 MSTORE PUSH1 0x20 ADD SWAP2 POP JUMPDEST POP SWAP4 POP POP POP POP PUSH1 0x40 MLOAD DUP1 SWAP2 SUB SWAP1 RETURN JUMPDEST PUSH2 0x64 PUSH1 0x4 DUP1 CALLDATASIZE SUB PUSH1 0x20 DUP2 LT ISZERO PUSH2 0x1EF JUMPI PUSH1 0x0 DUP1 REVERT JUMPDEST DUP2 ADD SWAP1 PUSH1 0x20 DUP2 ADD DUP2 CALLDATALOAD PUSH5 0x100000000 DUP2 GT ISZERO PUSH2 0x20A JUMPI PUSH1 0x0 DUP1 REVERT JUMPDEST DUP3 ADD DUP4 PUSH1 0x20 DUP3 ADD GT ISZERO PUSH2 0x21C JUMPI PUSH1 0x0 DUP1 REVERT JUMPDEST DUP1 CALLDATALOAD SWAP1 PUSH1 0x20 ADD SWAP2 DUP5 PUSH1 0x1 DUP4 MUL DUP5 ADD GT PUSH5 0x100000000 DUP4 GT OR ISZERO PUSH2 0x23E JUMPI PUSH1 0x0 DUP1 REVERT JUMPDEST SWAP2 SWAP1 DUP1 DUP1 PUSH1 0x1F ADD PUSH1 0x20 DUP1 SWAP2 DIV MUL PUSH1 0x20 ADD PUSH1 0x40 MLOAD SWAP1 DUP2 ADD PUSH1 0x40 MSTORE DUP1 SWAP4 SWAP3 SWAP2 SWAP1 DUP2 DUP2 MSTORE PUSH1 0x20 ADD DUP4 DUP4 DUP1 DUP3 DUP5 CALLDATACOPY PUSH1 0x0 SWAP3 ADD SWAP2 SWAP1 SWAP2 MSTORE POP SWAP3 SWAP6 POP PUSH2 0x432 SWAP5 POP POP POP POP POP JUMP JUMPDEST PUSH1 0x0 SLOAD JUMPDEST SWAP1 JUMP JUMPDEST PUSH1 0x0 SSTORE JUMP JUMPDEST PUSH1 0x40 DUP1 MLOAD DUP1 DUP3 ADD SWAP1 SWAP2 MSTORE DUP2 DUP2 MSTORE PUSH1 0x20 DUP1 DUP3 ADD DUP5 DUP2 MSTORE PUSH1 0x4 DUP1 SLOAD PUSH1 0x1 DUP2 ADD DUP3 SSTORE PUSH1 0x0 SWAP2 SWAP1 SWAP2 MSTORE DUP4 MLOAD PUSH1 0x2 SWAP1 SWAP2 MUL PUSH32 0x8A35ACFBC15FF81A39AE7D344FD709F28E8600B4AA8C65C6B64BFE7FE36BD19B DUP2 ADD SWAP2 DUP3 SSTORE SWAP2 MLOAD DUP1 MLOAD SWAP2 SWAP4 PUSH2 0x312 SWAP4 PUSH32 0x8A35ACFBC15FF81A39AE7D344FD709F28E8600B4AA8C65C6B64BFE7FE36BD19C ADD SWAP3 SWAP2 ADD SWAP1 PUSH2 0x44F JUMP JUMPDEST POP POP POP DUP1 PUSH1 0x3 DUP4 PUSH1 0x40 MLOAD DUP1 DUP3 DUP1 MLOAD SWAP1 PUSH1 0x20 ADD SWAP1 DUP1 DUP4 DUP4 JUMPDEST PUSH1 0x20 DUP4 LT PUSH2 0x348 JUMPI DUP1 MLOAD DUP3 MSTORE PUSH1 0x1F NOT SWAP1 SWAP3 ADD SWAP2 PUSH1 0x20 SWAP2 DUP3 ADD SWAP2 ADD PUSH2 0x329 JUMP JUMPDEST MLOAD DUP2 MLOAD PUSH1 0x20 SWAP4 DUP5 SUB PUSH2 0x100 EXP PUSH1 0x0 NOT ADD DUP1 NOT SWAP1 SWAP3 AND SWAP2 AND OR SWAP1 MSTORE SWAP3 ADD SWAP5 DUP6 MSTORE POP PUSH1 0x40 MLOAD SWAP4 DUP5 SWAP1 SUB ADD SWAP1 SWAP3 KECCAK256 SWAP3 SWAP1 SWAP3 SSTORE POP POP POP POP JUMP JUMPDEST PUSH1 0x4 DUP2 DUP2 SLOAD DUP2 LT PUSH2 0x38A JUMPI INVALID JUMPDEST PUSH1 0x0 SWAP2 DUP3 MSTORE PUSH1 0x20 SWAP2 DUP3 SWAP1 KECCAK256 PUSH1 0x2 SWAP2 DUP3 MUL ADD DUP1 SLOAD PUSH1 0x1 DUP1 DUP4 ADD DUP1 SLOAD PUSH1 0x40 DUP1 MLOAD SWAP4 DUP3 AND ISZERO PUSH2 0x100 MUL PUSH1 0x0 NOT ADD SWAP1 SWAP2 AND SWAP6 SWAP1 SWAP6 DIV PUSH1 0x1F DUP2 ADD DUP8 SWAP1 DIV DUP8 MUL DUP4 ADD DUP8 ADD SWAP1 SWAP6 MSTORE DUP5 DUP3 MSTORE SWAP2 SWAP6 POP SWAP2 SWAP4 SWAP2 SWAP3 SWAP1 SWAP2 DUP4 ADD DUP3 DUP3 DUP1 ISZERO PUSH2 0x428 JUMPI DUP1 PUSH1 0x1F LT PUSH2 0x3FD JUMPI PUSH2 0x100 DUP1 DUP4 SLOAD DIV MUL DUP4 MSTORE SWAP2 PUSH1 0x20 ADD SWAP2 PUSH2 0x428 JUMP JUMPDEST DUP3 ADD SWAP2 SWAP1 PUSH1 0x0 MSTORE PUSH1 0x20 PUSH1 0x0 KECCAK256 SWAP1 JUMPDEST DUP2 SLOAD DUP2 MSTORE SWAP1 PUSH1 0x1 ADD SWAP1 PUSH1 0x20 ADD DUP1 DUP4 GT PUSH2 0x40B JUMPI DUP3 SWAP1 SUB PUSH1 0x1F AND DUP3 ADD SWAP2 JUMPDEST POP POP POP POP POP SWAP1 POP DUP3 JUMP JUMPDEST DUP1 MLOAD PUSH1 0x20 DUP2 DUP4 ADD DUP2 ADD DUP1 MLOAD PUSH1 0x3 DUP3 MSTORE SWAP3 DUP3 ADD SWAP2 SWAP1 SWAP4 ADD KECCAK256 SWAP2 MSTORE SLOAD DUP2 JUMP JUMPDEST DUP3 DUP1 SLOAD PUSH1 0x1 DUP2 PUSH1 0x1 AND ISZERO PUSH2 0x100 MUL SUB AND PUSH1 0x2 SWAP1 DIV SWAP1 PUSH1 0x0 MSTORE PUSH1 0x20 PUSH1 0x0 KECCAK256 SWAP1 PUSH1 0x1F ADD PUSH1 0x20 SWAP1 DIV DUP2 ADD SWAP3 DUP3 PUSH1 0x1F LT PUSH2 0x490 JUMPI DUP1 MLOAD PUSH1 0xFF NOT AND DUP4 DUP1 ADD OR DUP6 SSTORE PUSH2 0x4BD JUMP JUMPDEST DUP3 DUP1 ADD PUSH1 0x1 ADD DUP6 SSTORE DUP3 ISZERO PUSH2 0x4BD JUMPI SWAP2 DUP3 ADD JUMPDEST DUP3 DUP2 GT ISZERO PUSH2 0x4BD JUMPI DUP3 MLOAD DUP3 SSTORE SWAP2 PUSH1 0x20 ADD SWAP2 SWAP1 PUSH1 0x1 ADD SWAP1 PUSH2 0x4A2 JUMP JUMPDEST POP PUSH2 0x4C9 SWAP3 SWAP2 POP PUSH2 0x4CD JUMP JUMPDEST POP SWAP1 JUMP JUMPDEST PUSH2 0x283 SWAP2 SWAP1 JUMPDEST DUP1 DUP3 GT ISZERO PUSH2 0x4C9 JUMPI PUSH1 0x0 DUP2 SSTORE PUSH1 0x1 ADD PUSH2 0x4D3 JUMP INVALID LOG2 PUSH5 0x6970667358 0x22 SLT KECCAK256 AND 0xCB DIV PUSH27 0x6B49008F85C9997941C581FF23A961669087AD316FCB163B599F4F PUSH29 0x64736F6C63430006000033000000000000000000000000000000000000 ",
  "sha1": "2b285eb4bb20a8605a5542f41dbbebeb9cd22cdd",
  "source": "pragma solidity ^0.6.0;\n\ncontract SimpleStorage {\n\n    uint256 favoriteNumber;\n    string favoriteName;\n    bool favoriteBool;\n\n    struct People {\n        uint256 favoriteNumber;\n        string favoriteName;\n\n    }\n\n    mapping(string => uint256) public nametoNumber;\n\n    People[] public people;\n\n    function store(uint256 _favoriteNumber) public {\n        favoriteNumber = _favoriteNumber;\n    }\n\n    function retrieve() public view returns(uint256) {\n        return favoriteNumber;\n    }\n\n    function addPerson(string memory _name, uint256 _favoriteNumber) public {\n        people.push(People(_favoriteNumber,_name));\n        nametoNumber[_name] = _favoriteNumber;\n    }\n}",
  "sourcePath": "contracts/SimpleStorage.sol",
  "type": "contract"
}